:1000000010C01DC01CC01BC01AC019C018C017C02A
:1000100016C015C014C014C012C011C010C00FC04B
:100020000EC011241FBECFEDCDBF20E0A0E6B0E092
:1000300001C01D92A936B207E1F74CD070C0E0CFE5
:100040001F920F920FB60F9211242F933F938F930D
:100050009F93AF93BF938091650090916600A091AC
:100060006700B09168003091640020E3230F2D37C2
:1000700058F54096A11DB11D209364008093650042
:1000800090936600A0936700B09368008091600031
:1000900090916100A0916200B09163000196A11D52
:1000A000B11D8093600090936100A0936200B093B3
:1000B0006300BF91AF919F918F913F912F910F90CE
:1000C0000FBE0F901F90189523EB230F4196A11D93
:1000D000B11DD2CF789480B7826080BF80B7816035
:1000E00080BF83B7826083BF83B7816083BF89B7D6
:1000F000816089BF1EBC8EB582608EBD8FB5816068
:100100008FBD3298319A309A379A87B38A6087BB0D
:10011000C0E0D0E0C49A2097E9F372DFFBCFF894F7
:02012000FFCF0F
:00000001FF
